:020000040000FA
:06000000006A7DEF01F033
:0400080050EF02F0C3
:0800180080EF01F0E9500CC07B
:10002000E9FF0DC0EAFFEE6EE9CF0CF0EACF0DF06C
:10003000D8807AEF01F0008A00AA009A00B405D0B7
:10004000FE0B016E0084D8900AD000B805D0086E6F
:10005000008820D806E2085024D803E200AA7AEFEC
:1000600001F00ED839D800940098009601D8F7D73F
:100070001DC0EAFF1B3CE96EE9881950EC1208D05C
:100080001DC0EAFF1BC0E9FF191CEE16E988EC163B
:100090007AEF01F0EDDF20D8F3DF18D8015000B679
:1000A0000109046E080E056E0436D8B0E1DFD8A051
:1000B000E7DF12D80BD8052EF7D7DADF0DD81DC031
:1000C000EAFF1BC0E9FF1950EF14FF0F1EC0EAFF43
:1000D0001CC0E9FF1A1CD9D71EC0EAFF1C3CE96E00
:1000E000E9881A50CBD7076A066E018E270E056E77
:1000F000100E0CD8030E056EE80E08D8056A640EC3
:1001000005D8056A0A0E02D806500BD0046E0750B7
:10011000036E0650026E5CEC01F0E866019E01BEC3
:100120001200300F086E1DC0EAFF1DC0E2FF1B5019
:10013000E96E120FE16E090E096ED8900CD80832E4
:10014000092EFCD7D88007D8030E036EE80E27ECE3
:1001500001F07AEF01F001A60BD0EF50191001A4C5
:100160001918EF6EE7501910D8A01918E76E0AD0C9
:10017000EF501910D8A0191801B41918EF6E191CF6
:10018000E71600D00134060BA40FF66EF76A010ED5
:10019000F722F86A0900F550036E0800F5500000D8
:1001A00027EF01F0017F031F00460CE3019E0B5077
:1001B000D8B4018E050E0A6E270E056E100E0CD8EF
:1001C000030E056EE80E08D8056A640E05D8056AA8
:1001D0000A0E02D8065008D0046E0750036E06506F
:1001E000026E5CEC01F00250026E0A4E019E0B5052
:1001F00003E00A5CD8B012000250D8A4019E01BEF0
:100200001200300F74EF01F0A66AA680A850A92A48
:100210007AEF01F0E86AA86EA66AA684550EA76E6A
:10022000AA0EA76EA682A6B2FED7A694A92A7AEF36
:1002300001F0056A046EE86A0406055AD8A07AEF50
:1002400001F0030E036EE00E02D8F5D7036AE90F42
:10025000026EFC0E05E3000004000226FDE2000031
:1002600002260306F9E202B000D002A202D000D0BA
:1002700000001200D89002360336FF0FFBE2025056
:100280007AEF01F0046E010E00D00A6E0550035C97
:1002900002E10450025C040ED8B0010ED8B4020E84
:1002A0000A14D8A4FF0E7AEF01F0E866FF0E0214DC
:1002B000D8A4FF0E7AEF01F0076A066A100E086EE6
:1002C0000334063607360450065E0550075A05E229
:1002D0000450062605500722D89002360336082E11
:1002E000EFD702507AEF01F0E96EFB6A1350FA6E15
:1002F0001250F96E000104001200186A81EF01F03B
:100300001000289634EF02F0040028B6CBEF01F07D
:1003100002C090F003C091F004C094F005C095F0C5
:1003200006C098F007C099F008C09CF009C09DF085
:100330000AC0A0F00BC0A1F00CC0A2F00DC0A3F049
:100340000EC0A4F00FC0A5F010C0A6F011C0A7F019
:1003500012C0A8F013C0A9F000C0AAF001C0ABF011
:1003600019C0ACF01AC0ADF01BC0AEF01CC0AFF0AD
:10037000F8CFCEF0F7CFD1F0F6CFD0F01DC0B0F06F
:100380001EC0B1F014C0B2F015C0B3F016C0B6F084
:1003900017C0B7F0288618B4D5EF01F025C0FBFFD1
:1003A00024C0FAFF2350E06AF96E22C0FBFF21C08F
:1003B000FAFF2050E06AF96E040028A623EF02F04D
:1003C00090C002F091C003F094C004F095C005F015
:1003D00098C006F099C007F09CC008F09DC009F0D5
:1003E000A0C00AF0A1C00BF0A2C00CF0A3C00DF099
:1003F000A4C00EF0A5C00FF0A6C010F0A7C011F069
:10040000A8C012F0A9C013F0AAC000F0ABC001F060
:10041000ACC019F0ADC01AF0AEC01BF0AFC01CF0FC
:10042000CEC0F8FFD1C0F7FFD0C0F6FFB0C01DF0BE
:10043000B1C01EF0B2C014F0B3C015F0B6C016F0D3
:10044000B7C017F0289618B42DEF02F025C0FBFFB7
:1004500024C0FAFF2350E06AF96E22C0FBFF21C0DE
:10046000FAFF2050E06AF96E92809282928492861E
:100470009288928A968096829684948494809482BC
:10048000928C949C949E9592959095949596938A2F
:1004900093889386938293849380959898EF02F043
:1004A000FBCF6FF0FACF6DF0E9CF60F0EACF61F0EB
:1004B000E1CF64F0E2CF65F0D9CF68F0DACF69F030
:1004C00018841890E06A9DA07BEF02F09EA07BEF5D
:1004D00002F018800400E40E206E040E216E000E5F
:1004E000226E12D7F40E206E040E216E000E226EC4
:1004F0003EEF07F09E90E06A18B061EF02F00C0E3C
:10050000206E050E216E000E226E56D7189460C024
:10051000E9FF61C0EAFF64C0E1FF65C0E2FF68C0B7
:10052000D9FF69C0DAFF6DC0FAFF6FC0FBFF110091
:10053000F28EF28C310ECD6E9F809D800F0EC16EBB
:10054000070EB46EF19E6D966F86816A826A760E92
:10055000D36E829C83928394829E839083968398A9
:10056000E968070EEA6EED6AE950EA10FCE1EF6A0D
:10057000EAEF03F03E84040042A2E2EF02F00F0E25
:100580003E14146E156AF00E4014166E176A14505D
:1005900016103E6EFB0E3E143F6E830E1B6E0F0E4A
:1005A0001D6E400E196E830E1C6E0F0E1E6E800E99
:1005B0001A6E4E0E1DEC00F03E501DEC00F03F5048
:1005C0001BEC00F0040042A011EF03F00F0E3E14EC
:1005D000146E156A40C002F0036A040E4EDE166EF9
:1005E00003C017F0F00E1616000E17161450161052
:1005F0003E6EFB0E3E143F6E830E1B6E0F0E1D6E85
:10060000400E196E830E1C6E0F0E1E6E800E1A6E3B
:100610004E0E1DEC00F03E501DEC00F03F501BEC68
:1006200000F01200720E0C5C146E000E0D58156E68
:100630001404296E000E15582A6E030E426E26967B
:10064000416A41C002F0036A2AC005F029501ADE4F
:10065000D8A45DEF03F04150720FE96E000EEA6A14
:10066000EA22EFCF14F004001450FE08D8A43CEFA7
:1006700003F026865AEF03F0040026A644EF03F0A9
:100680003E90269645EF03F03E804150720FE96E92
:10069000000EEA6AEA22EFCF40F06CDF040026A6E3
:1006A00057EF03F0020E19EC01F05AEF03F0320E8F
:1006B00026EC01F0412AD8A0C4D7269612003E8429
:1006C000040042A0A0EF03F00F0E3E14146E156A52
:1006D000F00E4014166E176A145016103E6EFB0E84
:1006E0003E143F6E830E1B6E0F0E1D6E400E196E74
:1006F000830E1C6E0F0E1E6E800E1A6E4E0E1DECBB
:1007000000F03E501BEC00F0010E056EF40E1AECEA
:1007100001F0830E1B6E0F0E1D6E400E196E830EC0
:100720001C6E0F0E1E6E800E1A6E4E0E1DEC00F02B
:100730003F501BEC00F0010E056EF40E1AEC01F0B8
:10074000040042A0E9EF03F00F0E3E14146E156A88
:1007500040C002F0036A040E3DEC01F0166E03C0C7
:1007600017F0F00E1616000E1716145016103E6EE7
:10077000FB0E3E143F6E830E1B6E0F0E1D6E400E61
:10078000196E830E1C6E0F0E1E6E800E1A6E4E0EAC
:100790001DEC00F03E501BEC00F0010E056EF40E57
:1007A0001AEC01F0830E1B6E0F0E1D6E400E196EBB
:1007B000830E1C6E0F0E1E6E800E1A6E4E0E1DECFA
:1007C00000F03F501BEC00F0010E056EF40E1AEC29
:1007D00001F01200FA0E19EC01F03E863E923E90B6
:1007E000010E426E030E406EC5DE170E036E700ED4
:1007F00027EC01F0BFDE030E036EE80E27EC01F0DC
:10080000B9DE030E036EE80E27EC01F0020E406E17
:10081000B1DE030E036EE80E27EC01F0030E426E0C
:10082000280E406EA7DE0C0E406EA4DE010E406E58
:10083000A1DE020E19EC01F0060E406E9BDE020EE8
:1008400019EC01F0010E056EF40E1AEC01F007EC44
:1008500013F0810E1B6E0F0E1D6E800E196E0C0EA6
:10086000016E4E0E92EC00F0690E92EC00F0760EE6
:1008700092EC00F06F0E92EC00F06D0E92EC00F036
:10088000610E92EC00F0740E92EC00F0200E92ECEF
:1008900000F0460E92EC00F0570E92EC00F03A0E8B
:1008A00092EC00F0010E73EC00F02E0E92EC00F0D2
:1008B000010E73EC00F00D0E92EC00F00A0E92ECBB
:1008C00000F0720E0C6E0D6AFE0E0FEC00F0020EC0
:1008D0000FEC00F04E0E0FEC00F0690E0FEC00F084
:1008E000760E0FEC00F06F0E0FEC00F06D0E0FECBB
:1008F00000F0610E0FEC00F0740E0FEC00F0200E13
:100900000FEC00F0690E0FEC00F06E0E0FEC00F033
:10091000690E0FEC00F0740E0FEC00F02E0E0FECD1
:1009200000F0200E0FEC00F0200E0FEC00F0200E77
:100930000FEC00F0200E0FEC00F0200E0FEC00F09A
:10094000200E0FEC00F0200E0FEC00F0200E0FEC4C
:1009500000F0200E0FEC00F065DE720E0C6E0D6ADA
:10096000FE0E0FEC00F0C00E0FEC00F0460E0FEC88
:1009700000F0570E0FEC00F03A0E0FEC00F00B6A8F
:10098000010E066E076A1C0E126E136AD6EC00F09A
:100990002E0E0FEC00F00B6A010E066E076A1C0E9D
:1009A000126E136AD6EC00F0200E0FEC00F0230E4E
:1009B0000FEC00F0200E0FEC00F0440E0FEC00F0F6
:1009C0004D0E0FEC00F0200E0FEC00F0320E0FEC8D
:1009D00000F0300E0FEC00F0310E0FEC00F0370E8F
:1009E0000FEC00F01FDE050E056EDC0E1AEC01F0B8
:1009F000010E446E1E0E19EC01F0810E1B6E0F0EDF
:100A00001D6E800E196E0C0E016E4E0E92EC00F0F3
:100A1000690E92EC00F0760E92EC00F06F0E92EC04
:100A200000F06D0E92EC00F0610E92EC00F0740E8E
:100A300092EC00F0200E92EC00F0760E92EC00F0BA
:100A4000310E92EC00F02C0E92EC00F0200E92ECA5
:100A500000F0720E92EC00F0650E92EC00F0760E53
:100A600092EC00F0690E92EC00F0730E92EC00F044
:100A7000690E92EC00F06F0E92EC00F06E0E92ECAC
:100A800000F0200E92EC00F0310E92EC00F00D0E12
:100A900092EC00F00A0E92EC00F0320E19EC01F02C
:100AA000810E1B6E0F0E1D6E800E196E0C0E016EE8
:100AB000540E92EC00F0650E92EC00F0630E92EC96
:100AC00000F06F0E92EC00F06D0E92EC00F0610EF3
:100AD00092EC00F0740E92EC00F0690E92EC00F0D3
:100AE000630E92EC00F02E0E92EC00F0720E92EC7F
:100AF00000F0730E92EC00F0200E92EC00F0440E29
:100B000092EC00F0610E92EC00F06D0E92EC00F0B1
:100B1000690E92EC00F0720E92EC00F0200E92EC56
:100B200000F04D0E92EC00F0690E92EC00F06C0EAD
:100B300092EC00F06F0E92EC00F0730E92EC00F06D
:100B4000610E92EC00F0760E92EC00F06C0E92ECDE
:100B500000F06A0E92EC00F0650E92EC00F0760E5A
:100B600092EC00F0690E92EC00F0630E92EC00F053
:100B70000D0E92EC00F00A0E92EC00F0320E19EC21
:100B800001F0C3EC05F038EC13F0720E0C6E0D6A38
:100B9000FE0E0FEC00F0020E0FEC00F04E0E0FEC0C
:100BA00000F0690E0FEC00F0760E0FEC00F06F0E07
:100BB0000FEC00F06D0E0FEC00F0610E0FEC00F08A
:100BC000740E0FEC00F0200E0FEC00F0200E0FEC76
:100BD00000F0460E0FEC00F0570E0FEC00F03A0E4E
:100BE0000FEC00F00B6A010E066E076A1C0E126E07
:100BF000136AD6EC00F02E0E0FEC00F00B6A010E1B
:100C0000066E076A1C0E126E136AD6EC00F012EC28
:100C100003F0720E0C6E0D6AFE0E0FEC00F0C00EAB
:100C20000FEC00F0560E0FEC00F0420E0FEC00F04F
:100C30003A0E0FEC00F00B6A2BC006F0076A1C0E90
:100C4000126E136AD6EC00F04D0E0FEC00F0420E5F
:100C50000FEC00F03A0E0FEC00F00B6A2CC006F01F
:100C6000076A1C0E126E136AD6EC00F0530E0FECDE
:100C700000F0420E0FEC00F03A0E0FEC00F00B6AA1
:100C80002DC006F0076A1C0E126E136AD6EC00F037
:100C9000200E0FEC00F0200E0FEC00F0200E0FECF9
:100CA00000F0200E0FEC00F0200E0FEC00F012EC24
:100CB00003F0040027A661EF06F0010E2E6E93EC00
:100CC00008F0040027A867EF06F0A9EC0BF00A0E65
:100CD00019EC01F0810E1B6E0F0E1D6E800E196E49
:100CE0000C0E016E410E92EC00F03A0E92EC00F008
:100CF000200E92EC00F0000E80B0010E73EC00F0BC
:100D0000000E80B2010E73EC00F0000E80B4010EF4
:100D100073EC00F0000E80B6010E73EC00F0200EB4
:100D200092EC00F0420E92EC00F03A0E92EC00F0E1
:100D3000200E92EC00F0000E80B8010E73EC00F073
:100D4000000E80BA010E73EC00F0000E84B0010EAC
:100D500073EC00F0000E84B2010E73EC00F0200E74
:100D600092EC00F0430E92EC00F03A0E92EC00F0A0
:100D7000000E84B4010E73EC00F0000E82B4010E7C
:100D800073EC00F0000E82B0010E73EC00F0000E68
:100D900082B2010E73EC00F00A0E92EC00F05C0ED1
:100DA00092EC00F0780E92EC00F0460E92EC00F01F
:100DB000440E92EC00F0640E19EC01F0810E1B6EF3
:100DC0000F0E1D6E800E196E0C0E016E5B0E92ECF6
:100DD00000F0500E92EC00F0560E92EC00F05D0E1A
:100DE00092EC00F0200E92EC00F0200E92EC00F05D
:100DF000410E92EC00F03A0E92EC00F0200E92ECD4
:100E000000F0000E82BE010E73EC00F0000E82BCFA
:100E1000010E73EC00F0200E92EC00F0420E92EC0A
:100E200000F03A0E92EC00F0200E92EC00F0000E72
:100E300083B0010E73EC00F0000E83B2010E73EC70
:100E400000F0200E92EC00F0430E92EC00F03A0E0F
:100E500092EC00F0200E92EC00F0000E83B6010E32
:100E600073EC00F0000E83B4010E73EC00F00A0E78
:100E700092EC00F0640E19EC01F085D604002B50C2
:100E80000108D8A4A8EF07F0040080B053EF07F0E2
:100E90002F2A04002F500F08D8A451EF07F02F6A13
:100EA000829C54EF07F02F6A040080A263EF07F0E2
:100EB000302A040030500F08D8A461EF07F0306AE0
:100EC000828C64EF07F0306AE86A80A2E868146EEA
:100ED000E86A80A4E868166E14C002F0165055EC5B
:100EE00001F0166E176E040016501710D8B484EF78
:100EF00007F0312A040031500F08D8A482EF07F020
:100F0000316A828E85EF07F0316AE86A80B4E8685A
:100F1000146EE86A80B2E868166E14C002F01650CB
:100F200055EC01F0166E176E040016501710D8B469
:100F3000A5EF07F0322A040032500F08D8A4A3EF1F
:100F400007F0326A829EA6EF07F0326AAAEF07F036
:100F5000829E829C04002C500108D8A414EF08F053
:100F6000040080B8BFEF07F0342A040034500F08A3
:100F7000D8A4BDEF07F0346A8392C0EF07F0346A5B
:100F8000040080AACFEF07F0352A040035500F087F
:100F9000D8A4CDEF07F0356A8382D0EF07F0356A29
:100FA000E86A80AAE868146EE86A84A0E868166EA9
:100FB00014C002F0165055EC01F0166E176E0400C6
:100FC00016501710D8B4F0EF07F0362A0400365048
:100FD0000F08D8A4EEEF07F0366A8380F1EF07F030
:100FE000366AE86A84B0E868146EE86A80BAE8682D
:100FF000166E14C002F0165055EC01F0166E176E06
:10100000040016501710D8B411EF08F0372A040066
:1010100037500F08D8A40FEF08F0376A839012EF0B
:1010200008F0376A16EF08F08390839204002D5081
:101030000108D8A480EF08F0040084B42BEF08F076
:10104000392A040039500F08D8A429EF08F0396A6A
:1010500083942CEF08F0396A040082A43BEF08F077
:101060003A2A04003A500F08D8A439EF08F03A6A37
:1010700083843CEF08F03A6AE86A82A4E868146E58
:10108000E86A82A0E868166E14C002F0165055ECAB
:1010900001F0166E176E040016501710D8B45CEFEE
:1010A00008F03B2A04003B500F08D8A45AEF08F080
:1010B0003B6A83865DEF08F03B6AE86A82B0E868C5
:1010C000146EE86A82B4E868166E14C002F0165016
:1010D00055EC01F0166E176E040016501710D8B4B8
:1010E0007DEF08F03C2A04003C500F08D8A47BEFA9
:1010F00008F03C6A83967EEF08F03C6A82EF08F0C5
:101100008396839418B48CEF08F025C0FBFF24C0AD
:10111000FAFF2350E06AF96E22C0FBFF21C0FAFFFC
:101120002050E06AF96E38EC13F0040026A2A4EF18
:1011300008F004002E500308D8A4A3EF08F0030E13
:101140002E6EA4EF08F02E2A040026A4B3EF08F0B8
:1011500004002E500108D8A4B2EF08F0010E2E6E44
:10116000B3EF08F02E06040026A8BBEF08F0010E2E
:101170002E6EC3EF05F0040027A6E2EF08F004008E
:101180002E500108D8A4CAEF08F0050EA96E04EC91
:1011900001F0446E04002E500208D8A4D5EF08F0E8
:1011A000060EA96E04EC01F0446E04002E500308F4
:1011B000D8A4E0EF08F0070EA96E04EC01F0446E2D
:1011C000ADEC0AF004002E500108D8A478EF09F025
:1011D000720E0C6E0D6AFE0E0FEC00F0020E0FEC9C
:1011E00000F03E0E0FEC00F0560E0FEC00F0650E16
:1011F0000FEC00F06C0E0FEC00F0690E0FEC00F03D
:101200006B0E0FEC00F0690E0FEC00F0200E0FECEF
:1012100000F0620E0FEC00F0610E0FEC00F07A0EA1
:101220000FEC00F0650E0FEC00F06E0E0FEC00F00E
:10123000200E0FEC00F0200E0FEC00F0200E0FEC53
:1012400000F0200E0FEC00F0200E0FEC00F0200E4E
:101250000FEC00F0200E0FEC00F012EC03F0720E19
:101260000C6E0D6AFE0E0FEC00F0C00E0FEC00F0DD
:10127000200E0FEC00F04D0E0FEC00F0610E0FECA5
:1012800000F06C0E0FEC00F0690E0FEC00F0200E79
:101290000FEC00F0620E0FEC00F0610E0FEC00F0AE
:1012A0007A0E0FEC00F0650E0FEC00F06E0E0FECF6
:1012B00000F0200E0FEC00F0200E0FEC00F0200EDE
:1012C0000FEC00F0200E0FEC00F0200E0FEC00F001
:1012D000200E0FEC00F0200E0FEC00F0200E0FECB3
:1012E00000F0200E0FEC00F012EC03F0ABEF0AF070
:1012F00004002E500208D8A408EF0AF0720E0C6EFB
:101300000D6AFE0E0FEC00F0020E0FEC00F0200E46
:101310000FEC00F0560E0FEC00F0650E0FEC00F035
:101320006C0E0FEC00F0690E0FEC00F06B0E0FEC82
:1013300000F0690E0FEC00F0200E0FEC00F0620ED2
:101340000FEC00F0610E0FEC00F07A0E0FEC00F0E5
:10135000650E0FEC00F06E0E0FEC00F0200E0FEC9F
:1013600000F0200E0FEC00F0200E0FEC00F0200E2D
:101370000FEC00F0200E0FEC00F0200E0FEC00F050
:10138000200E0FEC00F012EC03F0720E0C6E0D6AE2
:10139000FE0E0FEC00F0C00E0FEC00F03E0E0FEC56
:1013A00000F04D0E0FEC00F0610E0FEC00F06C0E33
:1013B0000FEC00F0690E0FEC00F0200E0FEC00F0C7
:1013C000620E0FEC00F0610E0FEC00F07A0E0FECE5
:1013D00000F0650E0FEC00F06E0E0FEC00F0200E2A
:1013E0000FEC00F0200E0FEC00F0200E0FEC00F0E0
:1013F000200E0FEC00F0200E0FEC00F0200E0FEC92
:1014000000F0200E0FEC00F012EC03F0ABEF0AF04E
:1014100004002E500308D8A4ABEF0AF0720E0C6E35
:101420000D6AFE0E0FEC00F0020E0FEC00F03E0E07
:101430000FEC00F0530E0FEC00F0700E0FEC00F00C
:101440006F0E0FEC00F06C0E0FEC00F06A0E0FEC5C
:1014500000F06E0E0FEC00F0690E0FEC00F0200EA5
:101460000FEC00F0620E0FEC00F0610E0FEC00F0DC
:101470007A0E0FEC00F0650E0FEC00F06E0E0FEC24
:1014800000F0200E0FEC00F0200E0FEC00F0200E0C
:101490000FEC00F0200E0FEC00F0200E0FEC00F02F
:1014A000200E0FEC00F0200E0FEC00F012EC03F019
:1014B000720E0C6E0D6AFE0E0FEC00F0C00E0FECFB
:1014C00000F0200E0FEC00F0200E0FEC00F0200ECC
:1014D0000FEC00F0200E0FEC00F0200E0FEC00F0EF
:1014E000200E0FEC00F0200E0FEC00F0200E0FECA1
:1014F00000F0200E0FEC00F0200E0FEC00F0200E9C
:101500000FEC00F0200E0FEC00F0200E0FEC00F0BE
:10151000200E0FEC00F0200E0FEC00F0200E0FEC70
:1015200000F0200E0FEC00F0200E0FEC00F0200E6B
:101530000FEC00F0200E0FEC00F0200E0FEC00F08E
:10154000200E0FEC00F0200E0FEC00F0200E0FEC40
:1015500000F012EC03F093EF08F038EC13F0040005
:1015600026A8B5EF0AF093EF08F0040026A4BBEF1D
:101570000AF0010E446E040026A2C0EF0AF0446A8D
:10158000720E0C6E0D6AFE0E0FEC00F0020E0FECE8
:1015900000F0410E0FEC00F0750E0FEC00F0740E31
:1015A0000FEC00F06F0E0FEC00F06D0E0FEC00F082
:1015B000610E0FEC00F0740E0FEC00F0690E0FECF2
:1015C00000F06B0E0FEC00F0610E0FEC00F0200E3F
:1015D0000FEC00F0200E0FEC00F0200E0FEC00F0EE
:1015E000200E0FEC00F0200E0FEC00F0200E0FECA0
:1015F00000F0200E0FEC00F012EC03F00400445059
:101600000008D8A43EEF0BF0720E0C6E0D6AFE0EB1
:101610000FEC00F0C00E0FEC00F05B0E0FEC00F0D2
:101620004F0E0FEC00F04B0E0FEC00F05D0E0FECC8
:1016300000F0200E0FEC00F02D0E0FEC00F0200E4D
:101640000FEC00F0550E0FEC00F0670E0FEC00F001
:10165000610E0FEC00F0730E0FEC00F0650E0FEC56
:1016600000F06E0E0FEC00F0610E0FEC00F0200E9B
:101670000FEC00F012EC03F07FEF0BF0040044508D
:101680000108D8A47FEF0BF0720E0C6E0D6AFE0EEF
:101690000FEC00F0C00E0FEC00F05B0E0FEC00F052
:1016A0004F0E0FEC00F04B0E0FEC00F05D0E0FEC48
:1016B00000F0200E0FEC00F02D0E0FEC00F0200ECD
:1016C0000FEC00F0550E0FEC00F0700E0FEC00F078
:1016D000610E0FEC00F06C0E0FEC00F06A0E0FECD8
:1016E00000F0650E0FEC00F06E0E0FEC00F0610ED6
:1016F0000FEC00F0200E0FEC00F012EC03F00400F1
:1017000027A6A8EF0BF004002E500108D8A48EEFF6
:101710000BF0050EA96E44500BEC01F004002E50A6
:101720000208D8A499EF0BF0060EA96E44500BECFA
:1017300001F004002E500308D8A4A4EF0BF0070E0C
:10174000A96E44500BEC01F007EC13F071EC12F0B1
:1017500004D738EC13F0040026A2BAEF0BF0040013
:101760002E500408D8A4B9EF0BF0040E2E6EBAEF79
:101770000BF02E2A040026A4C9EF0BF004002E5013
:101780000108D8A4C8EF0BF0010E2E6EC9EF0BF0C4
:101790002E06040026A8D1EF0BF0010E2E6EC3EF2B
:1017A00005F004002E500108D8A467EF0CF0720E6B
:1017B0000C6E0D6AFE0E0FEC00F0020E0FEC00F046
:1017C0003E0E0FEC00F0560E0FEC00F0650E0FEC25
:1017D00000F06C0E0FEC00F0690E0FEC00F06B0ED9
:1017E0000FEC00F0690E0FEC00F0200E0FEC00F093
:1017F000620E0FEC00F0610E0FEC00F07A0E0FECB1
:1018000000F0650E0FEC00F06E0E0FEC00F0200EF5
:101810000FEC00F0200E0FEC00F0200E0FEC00F0AB
:10182000200E0FEC00F0200E0FEC00F0200E0FEC5D
:1018300000F0200E0FEC00F012EC03F0720E0C6EB4
:101840000D6AFE0E0FEC00F0C00E0FEC00F0200E43
:101850000FEC00F04D0E0FEC00F0610E0FEC00F0FD
:101860006C0E0FEC00F0690E0FEC00F0200E0FEC88
:1018700000F0620E0FEC00F0610E0FEC00F07A0E3B
:101880000FEC00F0650E0FEC00F06E0E0FEC00F0A8
:10189000200E0FEC00F0200E0FEC00F0200E0FECED
:1018A00000F0200E0FEC00F0200E0FEC00F0200EE8
:1018B0000FEC00F0200E0FEC00F0200E0FEC00F00B
:1018C000200E0FEC00F012EC03F07BEF0EF00400A2
:1018D0002E500208D8A4F7EF0CF0720E0C6E0D6AB1
:1018E000FE0E0FEC00F0020E0FEC00F0200E0FECDD
:1018F00000F0560E0FEC00F0650E0FEC00F06C0ED1
:101900000FEC00F0690E0FEC00F06B0E0FEC00F026
:10191000690E0FEC00F0200E0FEC00F0620E0FECE1
:1019200000F0610E0FEC00F07A0E0FEC00F0650E87
:101930000FEC00F06E0E0FEC00F0200E0FEC00F03C
:10194000200E0FEC00F0200E0FEC00F0200E0FEC3C
:1019500000F0200E0FEC00F0200E0FEC00F0200E37
:101960000FEC00F012EC03F0720E0C6E0D6AFE0E1E
:101970000FEC00F0C00E0FEC00F03E0E0FEC00F08C
:101980004D0E0FEC00F0610E0FEC00F06C0E0FEC42
:1019900000F0690E0FEC00F0200E0FEC00F0620E6C
:1019A0000FEC00F0610E0FEC00F07A0E0FEC00F07F
:1019B000650E0FEC00F06E0E0FEC00F0200E0FEC39
:1019C00000F0200E0FEC00F0200E0FEC00F0200EC7
:1019D0000FEC00F0200E0FEC00F0200E0FEC00F0EA
:1019E000200E0FEC00F012EC03F07BEF0EF0040081
:1019F0002E500308D8A4BAEF0DF0720E0C6E0D6ACB
:101A0000FE0E0FEC00F0020E0FEC00F03E0E0FEC9D
:101A100000F0530E0FEC00F0700E0FEC00F06F0EA4
:101A20000FEC00F06C0E0FEC00F06A0E0FEC00F003
:101A30006E0E0FEC00F0690E0FEC00F0200E0FECB4
:101A400000F0620E0FEC00F0610E0FEC00F07A0E69
:101A50000FEC00F0650E0FEC00F06E0E0FEC00F0D6
:101A6000200E0FEC00F0200E0FEC00F0200E0FEC1B
:101A700000F0200E0FEC00F0200E0FEC00F0200E16
:101A80000FEC00F0200E0FEC00F012EC03F0720EE1
:101A90000C6E0D6AFE0E0FEC00F0C00E0FEC00F0A5
:101AA000200E0FEC00F0530E0FEC00F0760E0FEC52
:101AB00000F0690E0FEC00F0200E0FEC00F0620E4B
:101AC0000FEC00F0610E0FEC00F07A0E0FEC00F05E
:101AD000650E0FEC00F06E0E0FEC00F0690E0FECCF
:101AE00000F0200E0FEC00F0200E0FEC00F0200EA6
:101AF0000FEC00F0200E0FEC00F0200E0FEC00F0C9
:101B0000200E0FEC00F0200E0FEC00F0200E0FEC7A
:101B100000F0200E0FEC00F0200E0FEC00F0200E75
:101B20000FEC00F0200E0FEC00F0200E0FEC00F098
:101B3000200E0FEC00F0200E0FEC00F0200E0FEC4A
:101B400000F0200E0FEC00F0200E0FEC00F0200E45
:101B50000FEC00F0200E0FEC00F0200E0FEC00F068
:101B6000200E0FEC00F0200E0FEC00F012EC03F052
:101B70007BEF0EF004002E500408D8A47BEF0EF08B
:101B8000720E0C6E0D6AFE0E0FEC00F0020E0FECE2
:101B900000F0200E0FEC00F0530E0FEC00F0700E72
:101BA0000FEC00F06F0E0FEC00F06C0E0FEC00F07D
:101BB0006A0E0FEC00F06E0E0FEC00F0690E0FECE9
:101BC00000F0200E0FEC00F0620E0FEC00F0610E42
:101BD0000FEC00F07A0E0FEC00F0650E0FEC00F049
:101BE0006E0E0FEC00F0200E0FEC00F0200E0FEC4C
:101BF00000F0200E0FEC00F0200E0FEC00F0200E95
:101C00000FEC00F0200E0FEC00F0200E0FEC00F0B7
:101C100012EC03F0720E0C6E0D6AFE0E0FEC00F06B
:101C2000C00E0FEC00F03E0E0FEC00F0530E0FEC68
:101C300000F0760E0FEC00F0690E0FEC00F0200EB5
:101C40000FEC00F0620E0FEC00F0610E0FEC00F0F4
:101C50007A0E0FEC00F0650E0FEC00F06E0E0FEC3C
:101C600000F0690E0FEC00F0200E0FEC00F0200EDB
:101C70000FEC00F0200E0FEC00F0200E0FEC00F047
:101C8000200E0FEC00F0200E0FEC00F0200E0FECF9
:101C900000F0200E0FEC00F0200E0FEC00F0200EF4
:101CA0000FEC00F0200E0FEC00F0200E0FEC00F017
:101CB000200E0FEC00F0200E0FEC00F0200E0FECC9
:101CC00000F0200E0FEC00F0200E0FEC00F0200EC4
:101CD0000FEC00F0200E0FEC00F0200E0FEC00F0E7
:101CE000200E0FEC00F0200E0FEC00F0200E0FEC99
:101CF00000F012EC03F0040027A681EF0EF089EC4F
:101D00000EF0040026A887EF0EF0C3EF05F0A9EF50
:101D10000BF038EC13F004002E500108D8A472EF39
:101D20000FF0720E0C6E0D6AFE0E0FEC00F0020E3C
:101D30000FEC00F0560E0FEC00F0420E0FEC00F02E
:101D4000230E0FEC00F0200E0FEC00F0310E0FEC24
:101D500000F03A0E0FEC00F00B6A000E80B0010E9E
:101D6000066E076A1C0E126E136AD6EC00F0320E75
:101D70000FEC00F03A0E0FEC00F00B6A000E80B290
:101D8000010E066E076A1C0E126E136AD6EC00F086
:101D9000330E0FEC00F03A0E0FEC00F00B6A000E61
:101DA00080B4010E066E076A1C0E126E136AD6EC22
:101DB00000F0340E0FEC00F03A0E0FEC00F00B6A5E
:101DC000000E80B6010E066E076A1C0E126E136AB4
:101DD000D6EC00F0200E0FEC00F0200E0FEC00F01F
:101DE000200E0FEC00F0200E0FEC00F0200E0FEC98
:101DF00000F0200E0FEC00F0200E0FEC00F0200E93
:101E00000FEC00F0200E0FEC00F0200E0FEC00F0B5
:101E1000200E0FEC00F0200E0FEC00F0200E0FEC67
:101E200000F0200E0FEC00F0200E0FEC00F0200E62
:101E30000FEC00F0200E0FEC00F0200E0FEC00F085
:101E4000200E0FEC00F012EC03F0720E0C6E0D6A17
:101E5000FE0E0FEC00F0C00E0FEC00F0500E0FEC79
:101E600000F0750E0FEC00F06D0E0FEC00F0700E30
:101E70000FEC00F0610E0FEC00F03A0E0FEC00F0EA
:101E80000B6A000E82BE010E066E076A1C0E126EF1
:101E9000136AD6EC00F0560E0FEC00F0650E0FEC56
:101EA00000F06E0E0FEC00F0740E0FEC00F0690EF7
:101EB0000FEC00F06C0E0FEC00F03A0E0FEC00F09F
:101EC0000B6A000E82BC010E066E076A1C0E126EB3
:101ED000136AD6EC00F0200E0FEC00F012EC03F0C9
:101EE0006AEF12F004002E500208D8A459EF10F047
:101EF000720E0C6E0D6AFE0E0FEC00F0020E0FEC6F
:101F000000F04D0E0FEC00F0420E0FEC00F0230E2F
:101F10000FEC00F0200E0FEC00F0310E0FEC00F093
:101F20003A0E0FEC00F00B6A000E80B8010E066E40
:101F3000076A1C0E126E136AD6EC00F0320E0FEC1C
:101F400000F03A0E0FEC00F00B6A000E80BA010EA2
:101F5000066E076A1C0E126E136AD6EC00F0330E82
:101F60000FEC00F03A0E0FEC00F00B6A000E84B09C
:101F7000010E066E076A1C0E126E136AD6EC00F094
:101F8000340E0FEC00F03A0E0FEC00F00B6A000E6E
:101F900084B2010E066E076A1C0E126E136AD6EC2E
:101FA00000F0200E0FEC00F0200E0FEC00F0200EE1
:101FB0000FEC00F0200E0FEC00F0200E0FEC00F004
:101FC000200E0FEC00F0200E0FEC00F0200E0FECB6
:101FD00000F0200E0FEC00F0200E0FEC00F0200EB1
:101FE0000FEC00F0200E0FEC00F0200E0FEC00F0D4
:101FF000200E0FEC00F0200E0FEC00F0200E0FEC86
:1020000000F0200E0FEC00F0200E0FEC00F0200E80
:102010000FEC00F012EC03F0720E0C6E0D6AFE0E67
:102020000FEC00F0C00E0FEC00F0500E0FEC00F0C3
:10203000750E0FEC00F06D0E0FEC00F0700E0FEC53
:1020400000F0610E0FEC00F03A0E0FEC00F00B6A9E
:10205000000E83B0010E066E076A1C0E126E136A24
:10206000D6EC00F0560E0FEC00F0650E0FEC00F011
:102070006E0E0FEC00F0740E0FEC00F0690E0FEC1A
:1020800000F06C0E0FEC00F03A0E0FEC00F00B6A53
:10209000000E83B2010E066E076A1C0E126E136AE2
:1020A000D6EC00F0200E0FEC00F012EC03F06AEF1B
:1020B00012F004002E500308D8A440EF11F0720E65
:1020C0000C6E0D6AFE0E0FEC00F0020E0FEC00F02D
:1020D000530E0FEC00F0420E0FEC00F0230E0FEC4D
:1020E00000F0200E0FEC00F0310E0FEC00F03A0E75
:1020F0000FEC00F00B6A000E84B4010E066E076A46
:102100001C0E126E136AD6EC00F0320E0FEC00F0CB
:102110003A0E0FEC00F00B6A000E82B4010E066E50
:10212000076A1C0E126E136AD6EC00F0330E0FEC29
:1021300000F03A0E0FEC00F00B6A000E82B0010EB8
:10214000066E076A1C0E126E136AD6EC00F0340E8F
:102150000FEC00F03A0E0FEC00F00B6A000E82B2AA
:10216000010E066E076A1C0E126E136AD6EC00F0A2
:10217000200E0FEC00F0200E0FEC00F0200E0FEC04
:1021800000F0200E0FEC00F0200E0FEC00F0200EFF
:102190000FEC00F0200E0FEC00F0200E0FEC00F022
:1021A000200E0FEC00F0200E0FEC00F0200E0FECD4
:1021B00000F0200E0FEC00F0200E0FEC00F0200ECF
:1021C0000FEC00F0200E0FEC00F0200E0FEC00F0F2
:1021D000200E0FEC00F0200E0FEC00F0200E0FECA4
:1021E00000F012EC03F0720E0C6E0D6AFE0E0FEC96
:1021F00000F0C00E0FEC00F0500E0FEC00F0750E6A
:102200000FEC00F06D0E0FEC00F0700E0FEC00F014
:10221000610E0FEC00F03A0E0FEC00F00B6A000EAE
:1022200083B6010E066E076A1C0E126E136AD6EC98
:1022300000F0560E0FEC00F0650E0FEC00F06E0E85
:102240000FEC00F0740E0FEC00F0690E0FEC00F0D4
:102250006C0E0FEC00F03A0E0FEC00F00B6A000E63
:1022600083B4010E066E076A1C0E126E136AD6EC5A
:1022700000F0200E0FEC00F012EC03F06AEF12F009
:1022800004002E500408D8A46AEF12F0720E0C6EEF
:102290000D6AFE0E0FEC00F0020E0FEC00F0410E86
:1022A0000FEC00F00B6A000E80B0010E066E076A9C
:1022B0001C0E126E136AD6EC00F00B6A000E80B290
:1022C000010E066E076A1C0E126E136AD6EC00F041
:1022D0000B6A000E80B4010E066E076A1C0E126EA9
:1022E000136AD6EC00F00B6A000E80B6010E066E83
:1022F000076A1C0E126E136AD6EC00F0420E0FEC49
:1023000000F00B6A000E80B8010E066E076A1C0E04
:10231000126E136AD6EC00F00B6A000E80BA010E42
:10232000066E076A1C0E126E136AD6EC00F00B6A7A
:10233000000E84B0010E066E076A1C0E126E136A40
:10234000D6EC00F00B6A000E84B2010E066E076A2E
:102350001C0E126E136AD6EC00F0430E0FEC00F068
:102360000B6A000E84B4010E066E076A1C0E126E14
:10237000136AD6EC00F00B6A000E82B4010E066EF2
:10238000076A1C0E126E136AD6EC00F00B6A000E80
:1023900082B0010E066E076A1C0E126E136AD6EC2E
:1023A00000F00B6A000E82B2010E066E076A1C0E68
:1023B000126E136AD6EC00F0200E0FEC00F0200E27
:1023C0000FEC00F0200E0FEC00F012EC03F0720E98
:1023D0000C6E0D6AFE0E0FEC00F0C00E0FEC00F05C
:1023E0005B0E0FEC00F0500E0FEC00F0560E0FECF1
:1023F00000F05D0E0FEC00F0200E0FEC00F0410E2F
:102400000FEC00F00B6A000E82BE010E066E076A2A
:102410001C0E126E136AD6EC00F00B6A000E82BC22
:10242000010E066E076A1C0E126E136AD6EC00F0DF
:10243000420E0FEC00F00B6A000E83B0010E066E28
:10244000076A1C0E126E136AD6EC00F00B6A000EBF
:1024500083B2010E066E076A1C0E126E136AD6EC6A
:1024600000F0430E0FEC00F00B6A000E83B6010E75
:10247000066E076A1C0E126E136AD6EC00F00B6A29
:10248000000E83B4010E066E076A1C0E126E136AEC
:10249000D6EC00F0200E0FEC00F0200E0FEC00F058
:1024A000200E0FEC00F0200E0FEC00F0200E0FECD1
:1024B00000F0200E0FEC00F0200E0FEC00F0200ECC
:1024C0000FEC00F0200E0FEC00F0200E0FEC00F0EF
:1024D00012EC03F0040026A86FEF12F0120089EF4F
:1024E0000EF007EC13F0720E0C6E0D6AFE0E0FEC80
:1024F00000F0020E0FEC00F0530E0FEC00F0610E36
:102500000FEC00F0630E0FEC00F0750E0FEC00F016
:10251000760E0FEC00F0610E0FEC00F06E0E0FEC7B
:1025200000F0650E0FEC00F0200E0FEC00F0690ECD
:102530000FEC00F07A0E0FEC00F06D0E0FEC00F0D7
:10254000650E0FEC00F06E0E0FEC00F0650E0FEC58
:1025500000F0210E0FEC00F012EC03F0720E0C6E86
:102560000D6AFE0E0FEC00F0C00E0FEC00F0200E16
:102570000FEC00F0200E0FEC00F0200E0FEC00F03E
:10258000200E0FEC00F0200E0FEC00F0200E0FECF0
:1025900000F0200E0FEC00F0200E0FEC00F0200EEB
:1025A0000FEC00F0200E0FEC00F0200E0FEC00F00E
:1025B000200E0FEC00F0200E0FEC00F0200E0FECC0
:1025C00000F0200E0FEC00F0200E0FEC00F0200EBB
:1025D0000FEC00F0200E0FEC00F0200E0FEC00F0DE
:1025E000200E0FEC00F0200E0FEC00F0200E0FEC90
:1025F00000F0200E0FEC00F0200E0FEC00F012ECBB
:1026000003F0030E056EE80E1AEC01F01200050E41
:10261000A96E04EC01F02B6E04002B50FF08D8A427
:1026200017EF13F0050EA96E000E0BEC01F0060E6D
:10263000A96E04EC01F02C6E04002C50FF08D8A405
:1026400027EF13F0060EA96E000E0BEC01F0070E3B
:10265000A96E04EC01F02D6E04002D50FF08D8A4E3
:1026600037EF13F0070EA96E000E0BEC01F012000D
:1026700081B6268A81A6269A81BA278081AA2790C8
:1026800081B2268E81A2269E81B4268C81A4269CAE
:1026900081B8278281A8279281B0278481A02794BE
:1026A000040026BE5AEF13F027AE5AEF13F026842B
:1026B0005BEF13F02694040026BC65EF13F027AC03
:1026C00065EF13F0268266EF13F02692040027B020
:1026D00070EF13F028A070EF13F0268871EF13F05D
:1026E0002698040026BA7BEF13F027AA7BEF13F09D
:1026F00026807CEF13F02690040027B286EF13F0BB
:1027000028A286EF13F0278687EF13F027960400A0
:1027100027B491EF13F028A491EF13F0278892EFDC
:1027200013F0279826BA278A26AA279A27B0288046
:1027300027A0289026BE278E26AE279E26BC278C53
:1027400026AC279C27B2288227A2289227B4288467
:0A27500027A4289412000300FED70E
:020000040030CA
:0A000000C03BD8F2FF78BAFFFC3FC6
:00000001FF
